:020000040000FA
:100000005D280F39A0000310A00DA00D1F08E039D6
:10001000200401389F000030A100323023209F14BB
:100020009F181028A1011E085828A301A200FF3024
:10003000A207031CA307031C58280330A100DF30CC
:1000400023201728A101E83EA000A109FC30031CD1
:100050002C28A00703182928A0076400A10F29282D
:1000600020183228A01C3628000036280800A101DC
:10007000A301A20001304128A101A301A200043084
:100080004128A80023082102031D48282208200235
:10009000043003180130031902302805031DFF3016
:1000A00058280038031DFF300405031DFF30582871
:1000B00083130313831264000800831631309F00FA
:1000C0008312073099000130A300F430162000306D
:1000D0000120BC006400C6303C02031C7F28851050
:1000E000831685108312051183160511831285125C
:1000F00083168512831205168316051283123C0897
:10010000A000B9303720B8003C08A000C5303C2022
:10011000BA00380884003A085120BA00BB006400D5
:100120003A083B040319A42885108316851083120E
:100130000511831605118312851683168512831205
:1001400005128316051283123C08A000B330372035
:10015000B8003C08A000B9303C20BA003808840040
:100160003A085120BA00BB0064003A083B04031966
:10017000C92885108316851083120515831605116D
:1001800083128512831685128312051283160512B7
:1001900083123C08A000A5303720B8003C08A0001E
:1001A000B3303C20BA00380884003A085120BA0025
:1001B000BB0064003A083B040319EE28851483163B
:1001C000851083120511831605118312851283167B
:1001D0008512831205128316051283126400A6305D
:1001E0003C020318FF28851483168510FA30831209
:1001F0001520851083168510FA3083121520672884
:04020000630000296E
:02400E005C3F15
:00000001FF
